:020000040800F2
:100000000844002099010008BD230008BF23000810
:10001000C3230008C7230008CB230008000000000A
:1000200000000000000000000000000001010008C6
:10003000CF2300080000000045010008E727000862
:10004000B3010008B3010008B3010008B3010008C0
:10005000B3010008B3010008B3010008B3010008B0
:10006000B3010008B3010008B3010008B3010008A0
:10007000B3010008B3010008B3010008B301000890
:10008000B3010008B301000805250008B30100080A
:10009000B3010008B3010008B3010008B301000870
:1000A000B3010008B3010008B3010008B301000860
:1000B0003B2A0008B3010008B3010008B30100089F
:1000C000B3010008B3010008B3010008B301000840
:1000D000B301000857290008B3010008B301000864
:1000E000B3010008B3010008B3010008DFF80CD029
:1000F00006F00CFF00480047DB22000808440020FF
:10010000224B19680868B0E8F00F80F30988BFF344
:100110006F8F4FF0000080F311884EF00D0E704786
:100120000000000006480068006880F3088862B696
:1001300061B6BFF34F8FBFF36F8F00DF00BF00BF0B
:1001400008ED00E0EFF30980BFF36F8F0F4B1A68E3
:1001500020E9F00F106008B54FF0500080F31188CF
:10016000BFF34F8FBFF36F8F04F02BF84FF00000F9
:1001700080F31188BDE8084019680868B0E8F00FFE
:1001800080F30988BFF36F8F704700BF64080020B9
:10019000EFF3058070470000064880470648004797
:1001A000FEE7FEE7FEE7FEE7FEE7FEE7FEE7FEE727
:1001B000FEE7FEE79B020008ED0000080CB50020FA
:1001C000019000906C48006840F480306A490860F3
:1001D00000BF6948006800F4003000900198401C9E
:1001E0000190009818B90198B0F5A06FF1D162485C
:1001F000006800F4003010B10120009001E0002000
:1002000000900098012843D15C48006840F010003D
:100210005A4908600846006820F003000860084654
:10022000006840F002000860534840685249486046
:100230000846406848600846406840F4806048606E
:100240000846406820F47C1048600846406840F446
:10025000E81048600846006840F08070086000BF01
:100260004548006800F000700028F9D04248406816
:1002700020F00300404948600846406840F0020012
:10028000486000BF3C48406800F00C000828F9D1E5
:100290000CBD10B5FFF792FF10BD10B536480068D1
:1002A00040F001003449086008464068344908407D
:1002B0003149486008460068324908402E490860C4
:1002C0000846006820F4802008600846406820F452
:1002D000FE0048604FF41F008860FFF7DAFF4FF020
:1002E00000602949086010BD10B5002100200022DF
:1002F000214B5B6803F00C0121B1042906D00829C9
:1003000028D107E0214B224C236027E01F4B204CD3
:10031000236023E0184B5B6803F47010164B5B6896
:1003200003F48032022303EB904022B9194B43437C
:10033000174C23600DE0104B5B6803F4003323B1CE
:10034000144B4343124C236003E0104B4343104CC7
:10035000236003E00D4B0E4C236000BF00BF064B33
:100360005B68C3F303130C4CE15C094B1B68CB4087
:10037000074C236010BD0000001002400020024026
:100380000000FFF8FFFFF6FE08ED00E000127A0023
:100390000000002000093D00040000203149014315
:1003A000314A1160704770B5002100230F22C478D4
:1003B00004B32D4C246804F4E064C4F5E064210A1D
:1003C000C1F10403CA40447804FA03F1847814406C
:1003D00021430901254C0678A155047804F01F0536
:1003E0000124AC4005786D11AD0005F1E025C5F89C
:1003F000004109E0047804F01F050124AC401C4DC5
:100400000678761145F8264070BD1A4A0A40024324
:10041000154B1B1F1A60704739B1134A121D126821
:100420000243114B1B1D1A6006E00F4A121D126891
:1004300082430D4B1B1D1A607047042808D14FF0F2
:10044000E021096941F004014FF0E022116107E069
:100450004FF0E021096921F004014FF0E022116121
:10046000704700000000FA050CED00E000E400E039
:1004700080E100E080FFFF1F10B50446FA48844287
:1004800008D10121401500F055FD0021601500F054
:1004900051FD17E0F548844208D10121001500F014
:1004A00049FD0021201500F045FD0BE0F048844295
:1004B00008D10121C80300F03DFD00214FF40040A8
:1004C00000F038FD10BD30B5024600200023506812
:1004D000E84C20400D790C6844EA05242043506024
:1004E0009068E54C2040D1E902542C434D7944EA10
:1004F000450420439060D06A20F470000C7C641E98
:10050000E4B2234340EA0350D06230BD00210160D1
:10051000017141718160C16001210174704721B195
:10052000826842F00102826003E0826822F00102E8
:100530008260704721B1826842F48072826003E079
:10054000826822F480728260704710B50023CBB2BB
:100550001AB144681C43446002E044689C43446010
:1005600010BD816841F0080181607047014600209C
:100570008A6802F008020AB1012000E000207047FA
:10058000816841F0040181607047014600208A685B
:1005900002F004020AB1012000E00020704721B1FE
:1005A000826842F4A002826003E0826822F4A00222
:1005B00082607047014600208A6802F480020AB116
:1005C000012000E00020704710B50A4600210023FA
:1005D000416821F46041531E41EA4331416010BD3E
:1005E00021B1426842F40062426003E0426822F4B2
:1005F000006242607047F0B504460D4600200021BD
:10060000092D11DDE068A5F10A0606EB460707266D
:1006100006FA07F18843A5F10A0606EB460603FA37
:1006200006F10843E0600CE0206905EB450707266A
:1006300006FA07F1884305EB450603FA06F108437D
:100640002061072A0FDA606B561E06EB86071F260D
:1006500006FA07F18843561E06EB860605FA06F1F0
:100660000843606322E00D2A0FDA206BD61F06EBE9
:1006700086071F2606FA07F18843D61F06EB860673
:1006800005FA06F10843206310E0E06AA2F10D06C6
:1006900006EB86071F2606FA07F18843A2F10D062E
:1006A00006EB860605FA06F10843E062F0BD21B1CB
:1006B000826842F48012826003E0826822F4801231
:1006C000826070470146C86C80B2704766484C3003
:1006D0000068704721B1426842F48062426003E0E2
:1006E000426822F480624260704721B1426842F45D
:1006F0008052426003E0426822F4805242607047B8
:100700000A460021816821F4E0411143816070476D
:1007100021B1826842F40042826003E0826822F4E0
:1007200000428260704721B1826842F40212826006
:1007300003E0826822F402128260704701460020C2
:100740008A6802F400120AB1012000E0002070471C
:10075000F0B504461546002000220026092911DDC7
:10076000E068A1F10A0707EB470C072707FA0CF22C
:100770009043A1F10A0707EB470703FA07F210437A
:10078000E0600CE0206901EB410C072707FA0CF24E
:10079000904301EB410703FA07F210432061A06B7D
:1007A000C0F30156EF1C06F1010CA7EB0C0707EB99
:1007B000870C1F2707FA0CF29043EF1C06F1010C7F
:1007C000A7EB0C0707EB870701FA07F21043A063BA
:1007D000F0BD10B50A4600210023816B21F44011C1
:1007E000531E41EA0351816310BD08B500230093F5
:1007F0000090009B0B440093009B1A6008BD08B555
:10080000024600200090009201F12800009B18444D
:1008100000900098006880B208BD0A460021416837
:10082000164B194011434160704741628262704724
:100830000A460021416821F01F01114341607047C1
:1008400040B109490831096841F40001064A0832FB
:10085000116007E004490831096821F40001024AE7
:100860000832116070470000002401400028014058
:10087000003C0140FFFEF0FFFDF7F1FFFFFD3FFFF1
:100880000246002013680B400BB1012000E000205D
:100890007047CA430260704770B5024600200023CB
:1008A00000240B125568CEB205EA060415681D40F7
:1008B00015B10CB1012000E0002070BD00220A1229
:1008C000D34303607047000010B50446CC4884420F
:1008D00008D10121042000F02DFB0021042000F0AC
:1008E00029FB46E0C748844208D10121082000F0D6
:1008F00021FB0021082000F01DFB3AE0C2488442A1
:1009000008D10121102000F015FB0021102000F07B
:1009100011FB2EE0BD48844208D10121202000F0C7
:1009200009FB0021202000F005FB22E0B8488442AA
:1009300008D10121402000F0FDFA0021402000F004
:10094000F9FA16E0B348844208D10121802000F072
:10095000F1FA0021802000F0EDFA0AE0AE4884426E
:1009600007D10121801500F0E5FA0021A01500F063
:10097000E1FA10BD10B50121084600F0DBFA0021B4
:10098000012000F0D7FA10BD2DE9F0410246002504
:100990000026002000230024002791F803C00CF05B
:1009A0000F0591F803C00CF0100CBCF1000F03D040
:1009B00091F802C04CEA050591F800C0BCF1000FA7
:1009C00031D0146800202BE04FF0010C0CFA00F33A
:1009D000B1F800C00CEA03069E4220D183004FF01C
:1009E0000F0C0CFA03F7BC4305FA03FC4CEA0404B1
:1009F00091F803C0BCF1280F06D14FF0010C0CFA9E
:100A000000FCC2F814C00AE091F803C0BCF1480F22
:100A100005D14FF0010C0CFA00FCC2F810C0401CCC
:100A20000828D1D31460B1F800C0BCF1FF0F34DD49
:100A3000546800202EE000F1080C4FF0010808FA7D
:100A40000CF3B1F800C00CEA03069E4221D18300EA
:100A50004FF00F0C0CFA03F7BC4305FA03FC4CEA09
:100A6000040491F803C0BCF1280F05D100F1080C73
:100A700008FA0CF8C2F8148091F803C0BCF1480FD2
:100A800007D100F1080C4FF0010808FA0CF8C2F881
:100A90001080401C0828CED35460BDE8F0814FF68A
:100AA000FF710180022181700421C17070470246EC
:100AB000002093680B400BB1012000E0002070473C
:100AC0000146886880B2704702460020D3680B4018
:100AD0000BB1012000E0002070470146C86880B2D9
:100AE000704701617047416170470AB1016100E0E0
:100AF00041617047C16070474FF480320A438261A0
:100B00008161826182698269704702460020434B9D
:100B100018684FF68073184040EA021008433F4BB4
:100B2000186070473E49C8617047F0B50A46002317
:100B300000240021002500F00046B6F1004F02D14C
:100B4000364EF16901E0354E7168C0F3034583B25A
:100B500000F44016B6F5401F08D121F070612F4E09
:100B6000766826F070662D4F7E6012E000F48016E5
:100B7000B6F5801F06D1032606FA05F4A14341F01D
:100B8000706106E0460D360103FA06F6B14341F006
:100B9000706122B1460D360103FA06F6314300F0CA
:100BA0000046B6F1004F02D11C4EF16101E01B4E30
:100BB0007160F0BD30B500228B071C0F0F2303FAC4
:100BC00004F2164B08338C1053F824309343134C23
:100BD00008348D1044F8253023468C1053F8243007
:100BE0008C07240F00FA04F423430C4C08348D10B6
:100BF00044F8253030BD0A49DC31086070470000F8
:100C000000080140000C01400010014000140140A8
:100C100000180140001C014000200140000001407C
:100C200000002042DF48006840F00100DD49086014
:100C300008464068DC490840DA49486008460068D0
:100C4000DA490840D74908600846006820F4802047
:100C500008600846406820F4FE0048604FF41F001A
:100C600088607047CF49096821F48031CD4A11600E
:100C70001146096821F480211160B0F5803F03D04E
:100C8000B0F5802F0ED106E0C649096841F48031E5
:100C9000C44A116007E0C349096841F4A021C14A70
:100CA000116000E000BF00BF704710B50146002290
:100CB000002300204A11012A02D1BA4C236806E021
:100CC000022A02D1B74C236A01E0B64C636A01F0F4
:100CD0001F02012494401C400CB1012000E00020C0
:100CE00010BD38B5002000900024002500BF312041
:100CF000FFF7DBFF05460098401C00900098B0F518
:100D0000A06F01D0002DF2D03120FFF7CEFF08B147
:100D1000012400E00024204638BD01460020A14AFD
:100D2000106820F0F80040EAC10010607047A04948
:100D300008607047024600209A4B586820F47C10E7
:100D400042EA01031843974B586070479849086678
:100D5000704701460020934A506820F00300084382
:100D6000506070478F48406800F00C0070470146A3
:100D700000208C4A506820F0F00008435060704713
:100D800001460020874A506820F4E0600843506024
:100D9000704701460020834A506820F4605040EAC2
:100DA000C1005060704729B17E4A527A02437D4BA0
:100DB0005A7204E07B4A527A82437A4B5A727047E5
:100DC0007B49D8310860704701460020754A506859
:100DD00020F440400843506070470021714A20329F
:100DE0001170704A82F82010012802D004280AD11C
:100DF00004E001216B4A2032117005E00521694AA7
:100E00002032117000E000BF00BF704769490860E0
:100E100070476449096A0143624A11627047654933
:100E200044390860704730B50021002200240023B7
:100E30005C4D6D6805F00C0121B1042905D008292D
:100E400023D105E05C4D056022E05B4D05601FE0AD
:100E5000544D6D6805F47012524D6D6805F4803480
:100E6000022505EB92421CB9544D554305600BE039
:100E70004C4D6D6805F400351DB1504D554305606E
:100E800002E04D4D5543056002E04B4D056000BF4B
:100E900000BF444D6D6805F0F0010909484D6B5CD9
:100EA0000568DD4045603F4D6D6805F4E061090A65
:100EB000434D6B5C4568DD4085603A4D6D6805F4D7
:100EC0006051C90A3E4D6B5C4568DD40C560354DDB
:100ED0006D6805F44041890B3A4D6B5CC568B5FB04
:100EE000F3F5056130BD29B12E4A526902432D4BFD
:100EF0005A6104E02B4A526982432A4B5A61704777
:100F000029B1284A92690243264B9A6104E0254A96
:100F100092698243234B9A61704729B1214AD26971
:100F20000243204BDA6104E01E4AD26982431D4B22
:100F3000DA61704729B11B4AD2680243194BDA6063
:100F400004E0184AD2688243164BDA60704729B130
:100F5000144A12690243134B1A6104E0114A1269E0
:100F60008243104B1A61704712494039086070473C
:100F70000F49C86470470B49C87170470948406AF7
:100F800040F0807007494862704701460020054ADA
:100F900092680A400AB1012000E000207047014930
:100FA00088727047001002400000FFF8FFFFF6FE55
:100FB000000042428004424200127A0000093D00D3
:100FC000140000202400002010B50446FE4884428E
:100FD00008D10121C014FFF7ADFF0021E014FFF795
:100FE000A9FFC4E0B4F1804F08D101210846FFF702
:100FF000AEFF00210120FFF7AAFFB8E0F3488442CA
:1010000008D101210220FFF7A2FF00210220FFF7F3
:101010009EFFACE0EE48844208D101210420FFF796
:1010200096FF00210420FFF792FFA0E0E9488442E8
:1010300008D101210820FFF78AFF00210820FFF7CF
:1010400086FF94E0E448844208D101211020FFF794
:101050007EFF00211020FFF77AFF88E0DF488442FE
:1010600008D101212020FFF772FF00212020FFF787
:101070006EFF7CE0DA48844208D101214014FFF77A
:1010800059FF00216014FFF755FF70E0D5488442F6
:1010900009D10121C804FFF74DFF00214FF40020C2
:1010A000FFF748FF63E0D048844209D101210805D9
:1010B000FFF740FF00214FF48010FFF73BFF56E0A1
:1010C000CA48844209D101214805FFF733FF0021B6
:1010D0004FF40010FFF72EFF49E0C548844208D1C5
:1010E00001214020FFF733FF00214020FFF72FFFB1
:1010F0003DE0C048844208D101218020FFF727FF4E
:1011000000218020FFF723FF31E0BB48844208D153
:1011100001218015FFF71BFF0021A015FFF717FF26
:1011200025E0B648844209D101210804FFF702FFF7
:1011300000214FF48030FFF7FDFE18E0B0488442F4
:1011400009D101214804FFF7F5FE00214FF40030DA
:10115000FFF7F0FE0BE0AB48844208D10121880480
:10116000FFF7E8FE00214FF48020FFF7E3FE10BDFB
:1011700000220288944B98420ED0994B98420BD093
:10118000B0F1804F08D0914B984205D0904B9842D7
:1011900002D0904B984204D14FF68F731A404B887F
:1011A0001A438D4B984207D08C4B984204D04FF68F
:1011B000FF431A40CB881A4302808B8883850B88B3
:1011C0000385814B98420BD0854B984208D08B4BBE
:1011D000984205D08A4B984202D08A4B984201D15E
:1011E0000B7A038601238382704770B500240022A6
:1011F0000023058C4FF6FE7635400584028C8388EB
:10120000048B4FF68F752C40B51E2C400D882C4357
:10121000751E2A400D892A434D882A436A4DA842EB
:101220000BD06F4DA84208D0744DA84205D0744D24
:10123000A84202D0734DA84213D14FF6F7752A4049
:101240004D892A434FF6FB752A408D882A434FF675
:10125000FF652B404FF6FF552B408D892B43CD89E1
:101260002B4383800483CD888586028470BD70B54E
:10127000002400220023058C4FF6EF7635400584CC
:10128000028C8388048B48F6FF752C404FF6FF458F
:101290002C400D884FF6FF7606EA05252C434FF6C5
:1012A000DF752A400D8906EA05152A434D8806EAAE
:1012B00005152A43444DA84202D0494DA8421DD1EC
:1012C0004FF67F752A404D894FF6FF7606EA0515E1
:1012D0002A434FF6BF752A408D8806EA05152A4332
:1012E0004FF6FF352B404FF2FF752B408D8906EAF4
:1012F00085052B43CD8906EA85052B43838004832E
:10130000CD880587028470BD70B5002400220023BB
:10131000058C4FF6FF6635400584028C8388848BEC
:101320004FF68F752C404FF6FC752C400D882C43E2
:101330004FF6FF552A400D894FF6FF7606EA052540
:101340002A434D8806EA05252A431F4DA84202D0AC
:10135000234DA8421DD14FF2FF752A404D894FF60B
:10136000FF7606EA05252A434FF6FF352A408D8889
:1013700006EA05252A434EF6FF752B404DF6FF750C
:101380002B408D8906EA05152B43CD8906EA051504
:101390002B4383808483CD888587028470BD70B59C
:1013A000002200230024058C4EF6FF76354005848C
:1013B000038C8488828B48F6FF752A404FF6FF45E0
:1013C0002A400D8820E00000002C0140000400406D
:1013D00000080040000C00400010004000140040D5
:1013E00000340140004C01400050014000540140D5
:1013F00000180040001C0040002000400040014058
:1014000000440140004801404FF6FF7606EA0525FA
:101410002A434DF6FF752B400D8906EA05352B430F
:101420004D8806EA05352B43FA4DA84202D0FA4D05
:10143000A84208D14BF6FF752C408D894FF6FF76F8
:1014400006EA85152C4384808283CD88A0F840501D
:10145000038470BD828B4FF2FF331A408283828BEC
:101460004FF6FF7303EA01231A4382837047F0B5F6
:101470000C461546002200210026078C4EF6FF7C04
:1014800007EA0C070784828B018C4FF6FF7707EA87
:10149000043640F6FF473A404FF6FF7707EA052744
:1014A0003A434FF6FF7707EA03373A43D94FB8423A
:1014B0000ED0D94FB8420BD0B0F1804F08D0D74FE3
:1014C000B84205D0D64FB84202D0D64FB84206D166
:1014D0004DF6FF77394046F48057394305E047F62B
:1014E000FF57394044F48057394382830184F0BD6B
:1014F000828B4FF6F3731A408283828B0A43828376
:101500007047F0B50C461546002200210026078CD6
:101510004FF6FF6C07EA0C070784828B018C4FF6AD
:10152000FF7707EA04264FF60C773A404FF6FF772D
:1015300007EA03172F433A43B64FB8420ED0B64FCF
:10154000B8420BD0B0F1804F08D0B44FB84205D0AC
:10155000B34FB84202D0B34FB84206D14FF6FF574F
:10156000394046F48077394305E04FF2FF57394060
:1015700044F48077394382830184F0BD028B4FF2BB
:10158000FF331A400283028B4FF6FF7303EA0123F5
:101590001A4302837047F0B50C461546002200211D
:1015A0000026078C4FF6EF7C07EA0C070784028BB6
:1015B000018C4FF6FF7707EA041640F6FF473A40E2
:1015C0004FF6FF7707EA03373A434FF6FF7707EA0C
:1015D00005273A438F4FB8420ED08F4FB8420BD0F9
:1015E000B0F1804F08D08D4FB84205D08C4FB84233
:1015F00002D08C4FB84206D14FF6DF77394046F023
:101600001007394305E04FF65F77394044F0100783
:10161000394302830184F0BD028B4FF6F3731A4005
:101620000283028B0A4302837047F0B50C461546CD
:1016300000220021068C4FF6FE773E400684028B86
:10164000018C4FF60C7632407E1C06EA03162E43C0
:101650003243704EB0420ED06F4EB0420BD0B0F15C
:10166000804F08D06D4EB04205D06D4EB04202D0D2
:101670006C4EB04206D14FF6FD76314044F0010683
:10168000314305E04FF6F576314044F00106314331
:1016900002830184F0BD70B505460C465D48854265
:1016A0000ED05D4885420BD0B5F1804F08D05B4825
:1016B000854205D05A48854202D05A48854200D119
:1016C00000E000BF208850B92389A288618828469D
:1016D000FFF7ABFFE1882846FFF79EFF25E0208853
:1016E00004280AD12389A28861882846FFF753FF7E
:1016F000E1882846FFF742FF17E0208808280AD132
:101700002389A28861882846FFF7FBFEE1882846E6
:10171000FFF7EEFE09E02389A28861882846FFF7DB
:10172000A6FEE1882846FFF795FE70BD2DE9F04141
:1017300005460C4600260127608808B9022600E00D
:101740000026A088012801D1022700E00127208877
:10175000A0B92389A28861882846FFF766FFE1883F
:101760002846FFF759FF23893A4631462846FFF7B6
:1017700012FFE1882846FFF701FF13E02389A288C2
:1017800061882846FFF707FFE1882846FFF7F6FE45
:1017900023893A4631462846FFF747FFE188284625
:1017A000FFF73AFFBDE8F0810A884B881A438B881F
:1017B0001A43CB881A430B891A434B891A438B89E6
:1017C0001A43A0F8442070474FF6FF718180002132
:1017D0000180C180418001727047002101804180F9
:1017E0008180C180018141818181C1817047002157
:1017F00001804180012181800021C18001817047E9
:101800000021018041808180C180018141818181ED
:1018100070470000002C01400034014000040040EB
:1018200000080040000C004021B1028842F0010293
:10183000028004E002884FF6FE731A40028070476F
:1018400031B1B0F8442042F40042A0F8442005E051
:10185000B0F84420C2F30E02A0F8442070471AB139
:1018600083890B43838102E083898B4383817047A3
:101870008182704741EA0203A0F8483070471AB1EC
:1018800083890B43838102E083898B438381704783
:1018900001894FF6F8721140018170470A46002114
:1018A00001894FF68F73194011430181704730B59C
:1018B00004460D4629462046FFF7F0FF208940F0F8
:1018C0000700208130BD2DE9F04104460D46164643
:1018D0001F46602D06D13B46012231462046FFF7C8
:1018E0005AFE05E03B46012231462046FFF79DFEA9
:1018F00029462046FFF7D2FF208940F007002081CB
:10190000BDE8F08130B50C4600210189C9B24FF61F
:10191000FF7505EA0325154325432943018130BDA1
:101920002DE9F04105460E461746984600244346E9
:101930003A4631462846FFF7E5FF2C894FF6F87006
:10194000044044F007044FF68F70044044F07004E4
:101950002C81BDE8F081F0B504460D4616461F46C1
:101960003B46324629462046FFF7CCFF208940F40B
:1019700080402081F0BD0185828270470A460021A7
:1019800001884FF68F731940114301807047F0B5FD
:101990000C4615461E460021002200230189028BB9
:1019A000038C4FF6F877394021434FF6FC473A4015
:1019B00040F201173A434FF6DD773B404FF6FF7791
:1019C00007EA06172F433B43018102830384F0BDDE
:1019D0000A460021018B4FF68F7319401143018392
:1019E00070470A460021018B48F6FF7319404FF6F5
:1019F000FF7303EA02231943018370470A4600215B
:101A0000818B4FF68F7319401143818370470A46CB
:101A10000021818B48F6FF7319404FF6FF7303EAEC
:101A2000022319438183704721B1028842F080026A
:101A3000028004E002884FF67F731A4002807047EC
:101A400021B1828842F00402828004E082884FF64D
:101A5000FB731A408280704721B1828842F00802ED
:101A6000828004E082884FF6F7731A4082807047C4
:101A700021B1828842F00102828004E082884FF620
:101A8000FE731A40828070470A460021018B4FF690
:101A9000F77319401143018370470A460021018BF7
:101AA0004FF2FF7319404FF6FF7303EA0223194305
:101AB000018370470A460021818B4FF6F773194066
:101AC0001143818370470A460021818B4FF2FF73D7
:101AD00019404FF6FF7303EA0223194381837047CD
:101AE0000A460021018B4FF6FB7319401143018315
:101AF00070470A460021018B4FF6FF3319404FF61D
:101B0000FF7303EA02231943018370470A46002149
:101B1000818B4FF6FB7319401143818370470A464E
:101B20000021818B4FF6FF3319404FF6FF7303EA14
:101B300002231943818370470A460021018B4FF627
:101B40007F7319401143018370470A460021018BBE
:101B5000C1F30E014FF6FF7303EA02231943018319
:101B600070470A460021818B4FF67F73194011435D
:101B7000818370470A460021818BC1F30E014FF625
:101B8000FF7303EA02231943818370470A46002149
:101B9000018C4FF6FD7319401143018470470A46CA
:101BA0000021018C4FF6F7731940114301847047EF
:101BB0000A460021018C4FF6DF7319404FF6FF7380
:101BC00003EA02131943018470470A460021018C7D
:101BD0004FF67F7319404FF6FF7303EA0213194360
:101BE000018470470A460021018C4FF6FF531940CB
:101BF0004FF6FF7303EA02231943018470470A4634
:101C00000021018C4FF2FF7319404FF6FF7303EA76
:101C100002231943018470470A460021018C4DF6C6
:101C2000FF7319404FF6FF7303EA0233194301842F
:101C3000704730B5002301248C40A3B2048C9C4330
:101C40000484048C02FA01F5ADB22C43048430BD47
:101C500030B5002304248C40A3B2048C9C4304843C
:101C6000048C02FA01F5ADB22C43048430BD70B58A
:101C70000346002000241846183001258D40ACB2E0
:101C80001D8CA5431D8409B1082909D100EB610011
:101C9000056825F0700505600568154305600EE0D0
:101CA0000D1FC5F34E052844056825F4E045056081
:101CB00005684FF6FF7606EA02263543056070BDDB
:101CC00021B1028842F00202028004E002884FF64D
:101CD000FD731A400280704721B1028842F004026D
:101CE000028004E002884FF6FB731A4002807047BE
:101CF00021B1828842F08002828004E082884FF61F
:101D00007F731A408280704702884FF6F7731A403B
:101D1000028002880A430280704782884FF68F73E0
:101D20001A40828082880A438280704702894FF677
:101D3000F8731A40028102890A43028170470289BE
:101D40004FF67F731A40028102890A43028170476D
:101D5000818470478185704781867047018770470D
:101D600081877047A0F84010704702884FF6FF4304
:101D70001A40028002880A43028070470146888E1A
:101D800070470146088F70470146888F70470146AB
:101D9000B1F8400070470146888C70470146088DB5
:101DA000704702460020138A0B400BB1012000E06F
:101DB00000207047CA430282704730B502460020B7
:101DC00000230024158A05EA0103958905EA010428
:101DD00013B10CB1012000E0002030BDCA430282E3
:101DE0007047000010B50446FB48844209D1012128
:101DF0008803FFF79FF800214FF48040FFF79AF81F
:101E000032E0F648844209D101214804FFF79FF8E7
:101E100000214FF40030FFF79AF825E0F0488442A3
:101E200009D101218804FFF792F800214FF48020A6
:101E3000FFF78DF818E0EB48844209D10121C8046E
:101E4000FFF785F800214FF40020FFF780F80BE042
:101E5000E548844208D101210805FFF778F8002100
:101E60004FF48010FFF773F810BD2DE9F04786B0EE
:101E700005460E460024A24600BFA1460027B089B1
:101E800000B100BF2F462C8A4CF6FF700440F0884A
:101E900004432C82AC894EF6F3100440B08831899B
:101EA0000843718908430443AC81AC8A4FF6FF4074
:101EB0000440B0890443AC8201A8FEF7B4FFC648D1
:101EC000874202D1DDF810A001E0DDF80CA0A8895E
:101ED00000F4004040B10AEBCA0000EB0A10316880
:101EE0004900B0FBF1F807E00AEBCA0000EB0A106A
:101EF00031688900B0FBF1F86420B8FBF0F0040110
:101F00002009642101FB1089A88900F4004040B138
:101F1000322000EBC900B0FBF1F000F007000443F1
:101F200008E0322000EB09106421B0FBF1F000F072
:101F30000F0004432C8106B0BDE8F0874FF4165122
:101F4000016000218180C18001810C21418100213B
:101F50008181704710B502460020108A4FF2FF03BE
:101F600018400B884C8823438C882343CC88234318
:101F70001843108210BD0021018041808180C18002
:101F8000704721B1828942F40052828104E0828943
:101F90004DF6FF731A4082817047F0B50346002466
:101FA00000260025002040F66A17B94200D100BF84
:101FB0001846C1F3421401F01F06012707FA06F57F
:101FC000012C01D10C3004E0022C01D1103000E0D2
:101FD00014301AB107682F43076002E00768AF4367
:101FE0000760F0BD1AB1838A0B43838202E0838AC3
:101FF0008B4383827047028A4FF6F0731A40028245
:10200000028A0A430282704782894FF2FF731A40A4
:10201000828182890A438281704721B1828942F09C
:102020000202828104E082894FF6FD731A408281A8
:102030007047028A4FF6DF731A400282028A0A430F
:102040000282704721B1028A42F48042028204E097
:10205000028A4BF6FF731A4002827047C1F30802EE
:102060008280704701468888C0F3080070478189E4
:1020700041F0010181817047028BD2B20283028B51
:1020800042EA012202837047028B02F47F420283FC
:10209000028B0A430283704721B1828A42F02002F8
:1020A000828204E0828A4FF6DF731A408282704790
:1020B00021B1828A42F01002828204E0828A4FF6C5
:1020C000EF731A408282704721B1828A42F008027F
:1020D000828204E0828A4FF6F7731A408282704748
:1020E00021B1828942F40042828103E08289C2F3F5
:1020F0000E028281704721B1828A42F4006282829C
:1021000004E0828A4FF2FF731A4082827047828A0B
:102110004FF6FB731A408282828A0A43828270479A
:1021200021B1828A42F00202828204E0828A4FF662
:10213000FD731A408282704702460020B1F5007F8D
:1021400000D100BF13880B400BB1012000E000203C
:10215000704701F40072B2F5007F00D100BFCA439E
:102160000280704770B5024600240023002500203D
:1021700040F66A16B14200D100BFC1F3421501F02A
:102180001F03012606FA03F3012D02D1968933407D
:1021900006E0022D02D1168A334001E0968A3340D0
:1021A0000C12012606FA04F41688344013B10CB15F
:1021B000012000E0002070BD10B50022002340F691
:1021C0006A14A14200D100BF0A1201249440A3B2B4
:1021D000DC43048010BD0000003801400044004092
:1021E00000480040004C00400050004002E06420E5
:1021F00001F0BEFEFBE708B530E004F01FF94F49DF
:10220000088004F0A6F94E490860052001F0B0FEF0
:102210004C480078401C4B49087008460078142848
:102220001CD14748006804F0C5FC044622460B4612
:1022300045A1484804F0C8FE1020052300903F48FF
:1022400002880221302003F081FE1023414A04213C
:102250001E2003F0BFFE00203A490870CDE70FE0D2
:1022600001213D48FEF73DFC4FF4FA7001F080FE7D
:1022700001213948FEF737FC4FF4FA7001F078FE7F
:10228000EEE71CB5044603F0EEFA344801210023C2
:102290008022CDE9001032A1AFF23D0001F0E6FB53
:1022A0003248022100238022CDE9001030A1AFF294
:1022B000B90001F0DBFB3148012100238022CDE988
:1022C00000102FA1AFF2DB0001F0D0FB2F48006817
:1022D00001F01AFC03F0EAFA1CBD1CB5FDF7DDFFA6
:1022E00000F089FA4FF44070FEF758F84FF416509A
:1022F00000F0E6FA03F000FF03F092FD04F0BEF9EF
:1023000040B123A004F050FE102325A20021082094
:1023100003F060FE4FF47A7000F02DFA1B480121A3
:1023200000238022CDE9001021A1AFF2A90001F025
:102330009DFB02F0C8F800201CBD0000280800200A
:102340003C0800203A08002020252E3166206D2F01
:102350007320000033080020000C014044080020D6
:102360007461736B315F7461736B00004808002007
:102370007461736B325F7461736B00004C080020F2
:102380007461736B335F7461736B000040080020ED
:10239000B3F5CABCBBAFCAA7B0DC0A0D0000000091
:1023A0004D5334353235204661696C656400000058
:1023B00073746172745F7461736B0000704700BF67
:1023C000FEE700BFFEE700BFFEE700BFFEE7704785
:1023D00008B501210420FEF793FD3020ADF8000080
:1023E00000208DF8030069465848FEF7CDFA08BD75
:1023F00000B585B001214802FEF782FD0121880267
:10240000FEF77EFD002000908DF8040001208DF87D
:1024100005004FF4602002900020039001208DF809
:10242000100069464A48FEF74EF869464948FEF7EB
:102430004AF84FF44040FEF7C7FC0523012204216F
:102440004348FEF7D8F80523012219464148FEF714
:10245000D2F801224FF408713D48FEF776F80122C8
:102460004FF408713B48FEF770F801213848FEF739
:1024700056F83748FEF775F800BF3548FEF776F88E
:102480000028FAD13248FEF77BF800BF3048FEF74B
:102490007CF80028FAD101212D48FEF780F80121AF
:1024A0002C48FEF73CF82B48FEF75BF800BF2948A4
:1024B000FEF75CF80028FAD12648FEF761F800BF65
:1024C0002448FEF762F80028FAD101212148FEF7DE
:1024D00066F805B000BD08B512208DF80000012097
:1024E0008DF801008DF802008DF803006846FDF7B5
:1024F0005AFF08BD10B5FFF76BFFFFF779FFFFF735
:10250000EAFF10BD10B54FF408711148FEF7C4F989
:10251000012804D10E48FEF7D5F80F4908804FF482
:1025200008710C48FEF7B8F9012804D10948FEF7F4
:10253000C9F80A4908804FF408710548FEF7BEF94A
:102540004FF408710348FEF7B9F910BD00080140C7
:1025500000240140002801405008002052080020BB
:1025600008B54FF4A060FDF719FF25208DF8000095
:1025700001208DF801008DF802008DF803006846F7
:10258000FDF711FF08BD00B585B001210420FEF75D
:10259000B7FC01218803FEF7B3FC4FF40070ADF8DF
:1025A000100018208DF8130003208DF8120004A9E4
:1025B0005248FEF7E9F94FF48060ADF810000420AE
:1025C0008DF8130004A94D48FEF7DEF94FF4E13011
:1025D00000900020ADF80400ADF80600ADF808004A
:1025E000ADF80C000C20ADF80A0069464448FFF72E
:1025F0003CFCFFF7B5FF012240F225514048FFF7B0
:10260000CCFC01213E48FFF7BCFC05B000BD70B515
:1026100004460D4629462046FFF720FD00BF8021D5
:102620002046FFF789FD0028F9D070BD2DE9F04163
:1026300007460D461646002405E0295D3846FFF79B
:10264000E6FF601CC4B2B442F7DB00BF402138464D
:10265000FFF772FD0028F9D0BDE8F08170B506469D
:102660000C46002500BF615D3046FFF7D0FF6D1CB2
:10267000605D0028F7D100BF40213046FFF75CFDC8
:102680000028F9D070BD2DE9F04105460C46260A18
:10269000E7B231462846FFF7E1FC00BF802128461B
:1026A000FFF74AFD0028F9D039462846FFF7D6FC47
:1026B00000BF80212846FFF73FFD0028F9D0BDE884
:1026C000F08170B504460D46E1B20D48FFF7C6FC37
:1026D00000BF80210A48FFF72FFD0028F9D02046CF
:1026E00070BD10B5044600BF20210548FFF724FD4A
:1026F0000028F9D00248FFF7B5FC10BD00080140E2
:102700000038014000EBC001C9004FF0E0225161E8
:10271000002191610521116100BF4FF0E02109699D
:1027200001F480310029F8D004214FF0E02211613A
:10273000704770B5034600224FF0E0267569464E9B
:10274000367803FB06F44FF0E026B16910E04FF055
:10275000E026B06988420BD0884202D20E1A324479
:1027600002E02E1A0E4432440146A24200D300E099
:10277000EDE700BF70BD10B5044603E04FF47A707A
:10278000FFF7D7FF201EA4F101018CB2F6D110BDD6
:1027900070B5044602F049F9012810D02F4800888E
:1027A000844206D32D480088B4FBF0F5284601F09A
:1027B000DFFB2A480088B4FBF0F100FB11444FF422
:1027C0007A7104FB01F0FFF7B4FF70BD10B5044649
:1027D00003E04FF47A70FFF7DBFF201EA4F1010144
:1027E0008CB2F6D110BD10B502F01FF9012801D04E
:1027F00003F074F810BD10B50420FDF71EFE184854
:1028000000681849B0FBF1F01349087014480068DB
:102810001449B0FBF1F44FF47A70444301200F499E
:1028200008804FF0E020006940F002004FF0E02106
:10283000086108464461006940F00100086110BD6C
:1028400030B50446002504E04FF47A70FFF771FFBD
:102850006D1CA542F8D330BD540800205608002056
:102860000000002040420F00014600BF70470FB437
:1028700010B5B4B0002437A80090C92101A8009B6E
:10288000369A04F0B5FB0EE02046621CD4B201AAD1
:10289000115C3948FFF7E2FB00BF40213648FFF7E3
:1028A0004BFC0028F9D0C82C04DA01A803F04EFF35
:1028B000A042E9D80020009034B010BC5DF814FBB1
:1028C00010B586B00446012144F20400FEF718FB5F
:1028D0004FF40070ADF8140003208DF81600182096
:1028E0008DF8170005A92548FEF74EF84FF48060D3
:1028F000ADF8140004208DF8170005A91F48FEF755
:1029000043F825208DF8000001208DF801008DF896
:1029100002008DF803006846FDF745FD0194002094
:10292000ADF80800ADF80A00ADF80C00ADF81000E5
:102930000C20ADF80E0001A90F48FFF796FA01220E
:1029400040F225510C48FFF728FB01210A48FFF708
:1029500018FB06B010BD10B540F225510648FFF730
:1029600001FC40B10448FFF77DFBC4B240F22551A1
:102970000148FFF721FC10BD00380140000801406C
:1029800000B589B001210846FEF7C7FA01210420ED
:10299000FEF7B6FA0020ADF81E00ADF81A004EF6AC
:1029A0005F20ADF81C001720ADF8180006A94FF005
:1029B0008040FEF7DDFB0C20ADF80C000020ADF8E8
:1029C0001400ADF80E00ADF812000120ADF81000B3
:1029D00003A98007FEF75FFE28208DF80700082076
:1029E000ADF8040001A95148FDF7CEFF08214F487A
:1029F000FEF779F84FF4A060FDF7D0FC1C208DF8AD
:102A0000080001208DF80B0002208DF8090000203D
:102A10008DF80A0002A8FDF7C6FC01218807FEF721
:102A200003FF012211469007FEF719FF0122102132
:102A30008806FEF714FF09B000BD10B53C480078C9
:102A400000F08000002854D110218806FFF7B5F966
:102A500078B33748007800F04000A0B9002034492E
:102A600008703449088000214FF08040FFF770F96A
:102A70002F48007840F040002D4908700221480797
:102A8000FFF7CAF815E02A48007800F0400080B14E
:102A90002748007840F08000254908704FF08040BA
:102AA000FFF775F92349088000214FF08040FFF7B8
:102AB000B3F801218807FFF780F9D0B11C480078EE
:102AC00000F04000A8B11A48007800F03F003F280D
:102AD0000AD11748007840F08000154908704FF679
:102AE000FF701449088004E011480078401C104928
:102AF000087010218806FFF771F901218807FFF798
:102B00006DF910BD01460A4A127802F080025AB1EE
:102B1000074A127802F03F000004064A1288104467
:102B20000022034B1A700860704700000008014043
:102B30005E0800206008002000F1080141604FF0AD
:102B4000FF31816000F10801C16001610021016075
:102B5000704700210161704742684A6093688B604A
:102B6000936859609160086103685B1C036070475B
:102B700010B502460B685C1C0CB9106907E002F145
:102B8000080000E04068446824689C42FAD9446820
:102B90004C604C68A160886041600A611468641CE4
:102BA000146010BD01460A69D1E901309860D1E98D
:102BB000010358605068884201D188685060002045
:102BC00008611068401E10601068704770B50546B7
:102BD0000E462C462CB940F21B12F8A1FEA004F0C0
:102BE000E3F902F040FED4E90F12206801FB020075
:102BF00060600020A0632068A060E06B401E226C33
:102C0000216800FB0210E060FF2084F8440084F893
:102C100045009EB9206908B9012000E00020A8B94C
:102C200004F1100001F001FE80B14FF08050EE4938
:102C30000860BFF34F8FBFF36F8F07E004F1100000
:102C4000FFF77AFF04F12400FFF776FF02F02EFE73
:102C5000012070BD2DE9F04106460D461746984605
:102C6000069C0DB9246000E02760E663256401211D
:102C70002046FFF7ABFF84F850800020A064BDE839
:102C8000F0812DE9F84305460E4690460DB101202E
:102C900000E0002028B94FF4C472C8A1CEA004F00F
:102CA00083F90EB9002701E005FB06F707F1540090
:102CB00002F0E9FE044644B104F1540943464A4691
:102CC000314628460094FFF7C5FF2046BDE8F8834B
:102CD0002DE9F04104460F4615464FF00008A66B5B
:102CE000206C40B9206860BB606801F0FCFE804643
:102CF0000020606025E07DB93946226CA06803F0B1
:102D000001FD216CA0680844A060D4E9011088424C
:102D100017D32068A06014E03946226CE06803F005
:102D2000F1FC216CE068401AE0602168E0688842AC
:102D300003D2216C6068401AE060022D01D106B117
:102D4000761E701CA0634046BDE8F0812DE9F3417A
:102D50000D460098846C00272CB940F6CE1297A13E
:102D60009DA004F021F9A06BE16B884201D2012003
:102D700000E0002028B940F6CF1290A196A004F000
:102D800013F9A06BE16B88421BD294F945602A4687
:102D900069462046FFF79CFF0746701C60B9606AD1
:102DA00008B9012000E0002050B904F1240001F02E
:102DB0003CFD28B1012703E0701C40B284F84500B7
:102DC00000BF3846BDE8FC8170B5044602F04BFDFB
:102DD00094F945501AE0A06C38B100212046FFF765
:102DE000B5FF88B101F0F5FD0EE0606A08B9012079
:102DF00000E0002038B904F1240001F016FD18B1FC
:102E000001F0E7FD00E003E0681E45B2002DE2DCC2
:102E100000BFFF2084F8450002F048FD02F023FDCA
:102E200094F9445010E0206908B9012000E0002026
:102E300048B904F1100001F0F8FC08B101F0C9FD37
:102E4000681E45B200E001E0002DECDC00BFFF2071
:102E500084F8440002F02AFD70BD70B5054602F00A
:102E600002FDA86BE96B884201D1012400E0002437
:102E700002F01CFD204670BD2DE9FF4383B00646DD
:102E800088461D464FF0000934462CB940F2D9223D
:102E90004AA151A004F088F8B8F1000F01D1206CCC
:102EA00008B9012000E0002028B940F2DA2243A14D
:102EB00049A004F079F8022D02D1E06B012801D17C
:102EC000012000E0002028B940F2DB223BA142A013
:102ED00004F06AF801F0A9FD08B9059808B90120C5
:102EE00000E0002028B940F2DE2234A13AA004F02C
:102EF0005BF800BF02F0B7FCA06BE16B884201D326
:102F0000022D38D12A4641462046FFF7E1FE07460A
:102F1000A06C68B129462046FFF718FF28B34FF090
:102F2000805031490860BFF34F8FBFF36F8F1CE0B3
:102F3000606A08B9012000E0002068B904F12400AB
:102F400001F073FC88B14FF0805027490860BFF34F
:102F50004F8FBFF36F8F08E03FB14FF08050224991
:102F60000860BFF34F8FBFF36F8F02F09FFC01200B
:102F700007B0BDE8F083059818B902F097FC00206F
:102F8000F6E7B9F1000F04D101A801F0D2FC4FF02F
:102F9000010902F08BFC00F08AFF02F064FC94F956
:102FA0004400401C10B9002084F8440094F9450006
:102FB000401C10B9002084F8450017E02E2E5C2E2E
:102FC0002E5C557365725C4672656552544F535C56
:102FD00071756575652E63004572726F723A25735F
:102FE0002C25640D0A00000004ED00E002F05EFCF8
:102FF00005A901A801F0AFFCF8B92046FFF72DFFA5
:10300000A8B104F11000059901F0B1FB2046FFF7CB
:10301000DBFE00F0A1FE00287FF46CAF4FF0805083
:10302000FA490860BFF34F8FBFF36F8F62E7204606
:10303000FFF7CAFE00F090FE5CE72046FFF7C4FEF3
:1030400000F08AFE002093E710B504464CB1002042
:1030500060602060E06000231A4619462046FFF7B2
:103060000BFF10BD2DE9F041044601260027224642
:1030700000210120FFF705FE05462846FFF7E4FF83
:103080002846BDE8F08170B5064634463CB940F2AA
:103090004122AFF2D801AFF2C00003F085FF01F08A
:1030A000C1FC616888420CD1E068401EE060E068C5
:1030B00028B900231A4619462046FFF7DDFE0125F0
:1030C00000E00025284670BD70B5054602F0CBFB38
:1030D000A86B08B9012400E0002402F0E7FB2046B9
:1030E00070BD70B504460D46206C70B1216CE0686F
:1030F0000844E0606168E068884201D32068E060CD
:103100002846226CE16803F0FDFA70BD2DE9FF4707
:1031100082B005460E461F464FF0000A2C463CB9C9
:1031200040F2DC42AFF26C11AFF2541003F03CFFFE
:103130000EB9206C08B9012000E0002038B940F237
:10314000DD42AFF28811AFF2701003F02DFF01F0F5
:103150006CFC08B9049808B9012000E0002038B9D7
:103160004FF49C62AFF2AC11AFF2941003F01CFF6D
:1031700000BF02F078FBD4F83890B9F1000F3DD0D1
:10318000D4F80C8031462046FFF7ABFFDFB9A9F138
:103190000100A063206810B901F084FD606020691F
:1031A00008B9012000E0002010BB04F1100001F07C
:1031B0003CFBE8B14FF0805094490860BFF34F8F5B
:1031C000BFF36F8F14E0C4F80C80606A08B9012067
:1031D00000E0002060B904F1240001F026FB38B1C2
:1031E0004FF0805089490860BFF34F8FBFF36F8F56
:1031F00002F05CFB012006B0BDE8F087049818B926
:1032000002F054FB0020F6E7BAF1000F04D1684643
:1032100001F08FFB4FF0010A02F048FB00F047FE7F
:1032200002F021FB94F94400401C10B9002084F8FE
:10323000440094F94500401C10B9002084F8450072
:1032400002F034FB04A9684601F085FB40BB204630
:10325000FFF73AFFF0B1206830B902F004FB606874
:1032600001F0EFFB02F022FB04F12400049901F0CD
:103270007EFA2046FFF7A8FD00F06EFD00287FF4DF
:1032800078AF4FF0805061490860BFF34F8FBFF3B4
:103290006F8F6EE72046FFF797FD00F05DFD68E752
:1032A0002046FFF791FD00F057FD2046FFF70CFF89
:1032B0000028EED000209EE72DE9F04106460F469B
:1032C00034463CB94FF41E72AFF21031AFF2F82021
:1032D00003F06AFE01F0A6FB6168884204D1E06851
:1032E000401CE06001250AE000233A4619462046CA
:1032F000FFF70CFF054615B1E068401CE06028466A
:10330000BDE8F08170B505460E460DB1012000E024
:10331000002038B940F2BD22AFF26031AFF2483040
:1033200003F042FEAE4201D8012000E0002038B98F
:1033300040F2BE22AFF27C31AFF2643003F034FED3
:10334000022200212846FFF79CFC044604B1A66334
:10335000204670BD2DE9F05F80468A4615461E4620
:1033600044463CB940F29F32AFF2B031AFF29830F0
:1033700003F01AFEBAF1000F01D1206C08B9012048
:1033800000E0002038B94FF46872AFF2D031AFF2EC
:10339000B83003F009FE022E02D1E06B012801D102
:1033A000012000E0002038B940F2A132AFF2F43140
:1033B000AFF2DC3003F0F8FD02F0A8FA00BF5021B4
:1033C000EFF3118081F31188BFF34F8FBFF36F8F3D
:1033D00000BF0746A06BE16B884201D3022E2ED1BD
:1033E00094F945B0324651462046FFF771FC0BF187
:1033F0000100E0B9A06C58B131462046FFF7A6FCA9
:10340000D0B1CDB10120286016E0000004ED00E04D
:10341000606A08B9012000E0002068B904F12400C6
:1034200001F003FA40B13DB10120286004E00BF146
:10343000010040B284F845004FF0010901E04FF06F
:10344000000900BF87F3118800BF4846BDE8F09F20
:103450002DE9F04707460D463C463CB940F23C4258
:10346000AFF2A841AFF2904003F09EFD206C08B986
:10347000012000E0002038B94FF48862AFF2C44167
:10348000AFF2AC4003F090FD206808B9606808B95D
:10349000012000E0002038B940F24542AFF2E4419B
:1034A000AFF2CC4003F080FD02F030FA00BF5021B3
:1034B000EFF3118081F31188BFF34F8FBFF36F8F4C
:1034C00000BF0646D4F83890E06B484529D994F9F6
:1034D00045A009F10100A0630AF10100C8B9A06C80
:1034E00040B100212046FFF731FCB8B1B5B1012051
:1034F000286013E0606A08B9012000E0002068B984
:1035000004F1240001F091F940B13DB1012028609F
:1035100004E00AF1010040B284F845004FF00108D0
:1035200001E04FF0000800BF86F3118800BF40465D
:10353000BDE8F0872DE9F05F064689461746344618
:103540003CB94FF4B462AFF28C51AFF2745003F057
:103550002BFDB9F1000F01D1206C08B9012000E06A
:10356000002038B940F2A152AFF2B051AFF29850FA
:1035700003F01AFD02F0CAF900BF5021EFF31180E9
:1035800081F31188BFF34F8FBFF36F8F00BF0546E4
:10359000D4F838A0BAF1000F22D094F944B04946CB
:1035A0002046FFF79EFDAAF10100A0630BF1010088
:1035B00070B9206908B9012000E0002068B904F161
:1035C000100001F032F940B13FB10120386004E051
:1035D0000BF1010040B284F844004FF0010801E013
:1035E0004FF0000800BF85F3118800BF4046BDE8DA
:1035F000F09F2DE9F0470646884634463CB940F234
:10360000FC52AFF24861AFF2306003F0CDFCB8F18C
:10361000000F01D1206C08B9012000E0002038B96A
:1036200040F2FD52AFF26C61AFF2546003F0BCFCAB
:10363000206C08B1012000E0002038B940F2FE52B1
:10364000AFF28861AFF2706003F0AEFC02F05EF999
:1036500000BF5021EFF3118081F31188BFF34F8F2A
:10366000BFF36F8F00BF0546A06B48B1D4F80C9034
:1036700041462046FFF735FDC4F80C90012700E0D5
:10368000002700BF85F3118800BF3846BDE8F087EA
:1036900070B504463CB940F22F62AFF2E061AFF280
:1036A000C86003F081FC02F0DEF8A56B02F0FEF8C2
:1036B000284670BD70B5044625463DB940F24162CA
:1036C000AFF20871AFF2F06003F06EFC02F0CBF8DD
:1036D000D5E90E10461A02F0E9F8304670BD70B513
:1036E00004463CB940F25162AFF23071AFF218704B
:1036F00003F05AFCA56B284670BD014600200EE081
:10370000764A02EBC00252688A4207D10022734B0C
:1037100043F8302003EBC0035A6002E0401C082845
:10372000EED300BF704770B5044625463DB940F260
:103730005D62AFF27871AFF2607003F035FC28463D
:10374000FFF7DBFF284602F021FA70BD0146C86C86
:103750007047C1647047014691F85000704770B5DA
:1037600005463DB940F29372AFF2B071AFF2987076
:1037700003F01AFCA86B08B9012400E000242046DD
:1037800070BD70B504463CB940F2BA72AFF2D47164
:10379000AFF2BC7003F008FCA06BE16B884201D172
:1037A000012500E00025284670BD024600200BE000
:1037B0004A4B53F8303033B9484B43F8301003EBE1
:1037C000C0035A6002E0401C0828F1D300BF7047D4
:1037D0000246002000210AE0404B03EBC1035B6876
:1037E000934203D13D4B53F8310002E0491C0829B4
:1037F000F2D300BF70472DE9F04105460E4617464B
:103800002C4602F030F894F94400401C10B9002016
:1038100084F8440094F94500401C10B9002084F855
:10382000450002F043F8A06B28B93A46314604F14E
:10383000240000F0DFFF2046FFF7C6FABDE8F08164
:1038400070B50446002204212046FFF71AFA054607
:10385000284670BD70B504460E4602F004F8A06C10
:1038600008B1002505E0A06B08B1002501E0A664C1
:10387000012502F01BF8284670BD2DE9F0410546F0
:103880000F462E46B06CB84201D000240AE0B06B5F
:1038900008B1002406E001F0E6FF0020B06402F069
:1038A00005F801242046BDE8F08138B505460C46F0
:1038B000002000900023224669462846FFF726FC98
:1038C000009838BD38B504460020009000226946B3
:1038D0002046FFF72FFE009838BD0000B00D0020F5
:1038E00010B5002407E004EB8401FB4A02EB8100E1
:1038F000FFF722F9641C202CF5D3F848FFF71CF9D8
:10390000F748FFF719F9F748FFF716F9F648FFF7F8
:1039100013F9F648FFF710F9F048F5490860F04848
:10392000F449086010BD10B5044601F09CFFF24850
:103930000068401CF0490860F048006840B9EF4852
:1039400004600846006801280DD1FFF7C9FF0AE0AE
:10395000EB48006838B9E9480068C06AE16A884203
:1039600001D8E6480460E7480068401CE549086063
:1039700008460068606494F82C1001208840E249F1
:1039800009680843E0490860E16A01EB8101D24A15
:1039900002EB8100211DFFF7DFF801F087FFD84817
:1039A000006868B1D5480068C06AE16A884207D2F9
:1039B0004FF08050D5490860BFF34F8FBFF36F8F32
:1039C00010BD2DE9F05F82460F4690469B460A9E49
:1039D0000C9C4FEA8801A522206B02F0A5FEA8F1FD
:1039E0000100216B01EB800929F0070909F00700AC
:1039F00008B9012000E0002028B940F22B32C4A110
:103A0000CAA003F0D1FA002507E0795D04F1340083
:103A10004155785D00B902E06D1C102DF5D300BF53
:103A2000002143200155202E00D31F26E662E664C4
:103A300000202065201DFFF78CF804F11800FFF727
:103A400088F82461C6F12000A061646200206065EE
:103A500084F858005A465146484601F091FE2060CD
:103A60000B9808B10B980460BDE8F09F2DE9FF4F5B
:103A700085B0804689461746DDE912ABB80002F0F2
:103A800002F8064656B15C2001F0FDFF04460CB179
:103A9000266304E0304602F079F800E000247CB1AF
:103AA0000020CDE900ABCDE902403A464946404608
:103AB000089BFFF786FF2046FFF735FF012501E051
:103AC0004FF0FF35284609B0BDE8F08F88490968F6
:103AD000096809B9012100E0002121B14FF0FF314F
:103AE000964A116006E082490968C968C868934A25
:103AF00041681160704710B50446206B02F046F82B
:103B0000204602F043F810BD70B5054601F0ABFE4B
:103B100015B97A48006800E028460446201DFFF7E2
:103B200041F878B9E06A00EB80006B4951F8200059
:103B300040B994F82C1001208840734909688143EA
:103B400071480160A06A18B104F11800FFF72AF863
:103B50006C480068401C6B490860684800688442F3
:103B600009D1211D6048FEF7F7FF75480068401C29
:103B70007349086009E060480068401E5E490860BB
:103B80002046FFF7B8FFFFF7A1FF01F08FFE5C486A
:103B90000068C0B159480068844214D1694800687F
:103BA00008B9012000E0002028B940F2654258A180
:103BB0005EA003F0F9F94FF0805054490860BFF35C
:103BC0004F8FBFF36F8F70BD2DE9F0414FF00008AC
:103BD0005C480068002872D15B480068451C5A4860
:103BE0000560EDB942480068006808B9012000E0AE
:103BF000002028B940F6D91245A14CA003F0D4F911
:103C00003B4807683B480068394908603948076005
:103C10004E480068401C4D490860FFF757FF00BF41
:103C20004648006885423CD300BF314800680068C0
:103C300008B9012000E0002020B14FF0FF303F49DB
:103C400008602DE02A480068C068C4686668B5420C
:103C500002D23A48066023E0201DFEF7A3FFA06AC7
:103C600018B104F11800FEF79DFF94F82C10012004
:103C7000884025490968084323490860E16A01EB47
:103C80008101154A02EB8100211DFEF765FF1B49EA
:103C9000E06A0968C96A8842C7D34FF00108C4E7DF
:103CA00000BF16480068C06A00EB80000A4951F85E
:103CB0002000012801D94FF0010805E0FFE7244862
:103CC0000068401C224908602248006808B14FF093
:103CD00001084046BDE8F081F00D00207010002082
:103CE0008410002098100020AC100020C01000208C
:103CF000680800206C080020740800206408002078
:103D000080080020900800207C08002004ED00E0DE
:103D10002E2E5C2E2E5C557365725C467265655264
:103D2000544F535C7461736B732E63004572726FF2
:103D3000723A25732C25640D0A00000094080020B7
:103D4000700800209C080020780800208C080020C3
:103D5000840800208808002070B500240026FE4852
:103D6000006838B94FF4FD62AFF25C01AFF2440075
:103D700003F01AF901F077FDF7480068401EF64994
:103D800008600846006800284FD1F4480068002801
:103D90004BD024E0F248C068C46804F11800FEF774
:103DA00001FF201DFEF7FEFE94F82C100120884034
:103DB000EC4909680843EB490860E16A01EB8101BD
:103DC000E94A02EB8100211DFEF7C6FEE749E06AE1
:103DD0000968C96A884202D30120E5490860E048C1
:103DE000006808B9012000E000200028D2D00CB102
:103DF000FFF76CFEDF48056865B100BFFFF7E4FE22
:103E000010B10120DA4908606D1E002DF6D10020A6
:103E1000D8490860D648006838B101263007D6492D
:103E20000860BFF34F8FBFF36F8F01F03FFD304647
:103E300070BD2DE9F04105460E46D0480768CB48D5
:103E40000068001DFEF7AEFE50B9C848006890F843
:103E50002C1001208840C34909688143C148016092
:103E6000681C38B936B1C1480168091DC448FEF75D
:103E700073FE1AE07C19BD4800684460BC4207D25A
:103E8000BA480168091DBF480068FEF771FE0CE0E2
:103E9000B6480168091DBC480068FEF769FEBB48CA
:103EA0000068844201D2B9480460BDE8F081AA48A4
:103EB0000068401CA849086070472DE9F047044697
:103EC0000F464FF000093CB940F27942AFF2C01101
:103ED000AFF2A81003F068F80FB1012000E0002055
:103EE00038B940F27A42AFF2D811AFF2C01003F005
:103EF0005BF89948006808B9012000E0002038B953
:103F000040F27B42AFF2F811AFF2E01003F04CF850
:103F1000FFF7CDFF994806682068C5192068B042B0
:103F200007D92068A8420BD9B54209D94FF0010939
:103F300006E02068A84201D8B54201D94FF0010936
:103F40002560B9F1000F03D0A81B0021FFF771FF16
:103F5000FFF702FF8046B8F1000F07D14FF0805005
:103F600085490860BFF34F8FBFF36F8FBDE8F087BF
:103F700070B504460025BCB17748006808B9012037
:103F800000E0002038B940F2CF42AFF27C21AFF21E
:103F9000642003F009F8FFF78AFF00212046FFF7AD
:103FA00048FFFFF7D9FE05463DB94FF080507249F2
:103FB0000860BFF34F8FBFF36F8F70BD2DE9F041E5
:103FC00007463E463EB940F2FB42AFF2BC21AFF29B
:103FD000A42002F0E9FF65480068864201D1002470
:103FE0001EE001F040FC756901F060FC6648006865
:103FF000854203D063480068854201D102240FE066
:104000005F48854205D1B06A08B9032408E002245C
:1040100006E05F48854200D00DB9042400E0012489
:104020002046BDE8F08170B5044601F01CFC14B9CF
:104030004E48006800E020460646F56A01F036FC6E
:10404000284670BD2DE9F041054601F05FFC00BF38
:104050005021EFF3118081F31188BFF34F8FBFF32D
:104060006F8F00BF044615B94048006800E028463D
:104070000746FE6A00BF84F3118800BF3046BDE8E2
:10408000F0812DE9F04780460D464FF00009202DC4
:1040900001D2012000E0002038B94FF4B062AFF245
:1040A0009031AFF2783002F07FFF202D00D31F2532
:1040B00001F0D9FBB8F1000F02D12C48006800E0F4
:1040C00040460446E66CAE4277D0B5420BD927484D
:1040D000006884420DD025480068C06AA84208D80C
:1040E0004FF0010905E021480068844201D14FF0FA
:1040F0000109E76AE16AE06C884200D1E562E564A3
:10410000A06900F0004010B9C5F12000A06107EBE4
:104110008701154A02EB81016069884201D10120C3
:1041200000E00020B0B3201DFEF73CFD30B90120B7
:10413000B8400C49096881430A48016094F82C1082
:104140000120884007490968084306490860E16A78
:1041500001EB8101044A1FE09C0800207408002044
:10416000981000207C080020F00D0020640800203A
:10417000880800208408002004ED00E07808002072
:10418000C01000206C08002068080020940800205F
:10419000AC10002005E010E002EB8100211DFEF7CD
:1041A000DBFCB9F1000F07D04FF08050FB490860ED
:1041B000BFF34F8FBFF36F8F00BF01F077FBBDE8F8
:1041C000F08710B5F648006818B10120F54908607D
:1041D0002FE00020F3490860F3480068B0FA80F04F
:1041E000C0F11F0404EB8400F04951F8200008B12D
:1041F000012000E0002038B940F6F622AFF2F0418D
:10420000AFF2D84002F0D0FE04EB8401E74A02EBA3
:10421000810041684968416000F1080142688A42B2
:1042200002D14168496841604168C968E04A11604B
:1042300000BF10BD70B5054601F015FB15B9DC488F
:10424000006800E028460446201DFEF7ABFC78B964
:10425000E06A00EB8000D54951F8200040B994F89D
:104260002C1001208840D04909688143CE48016064
:10427000A06A18B104F11800FEF794FC211DCD4886
:10428000FEF76AFC01F012FBCB48006828B101F090
:10429000EAFAFFF71BFC01F009FBC54800688442FD
:1042A00026D1C5480068B8B1BD48006808B90120EA
:1042B00000E0002038B940F25762AFF2AC51AFF2E3
:1042C000945002F071FE4FF08050B4490860BFF383
:1042D0004F8FBFF36F8F0BE0B6480068B74909688E
:1042E000884203D10020B249086001E0FFF769FF6E
:1042F00070BD70B5054600262C463DB940F281627E
:10430000AFF2F451AFF2DC5002F04EFEA949606901
:10431000884201D1012000E0002070B1A849A06AC4
:10432000884201D1012000E0002030B9A06A08B91C
:10433000012000E0002000B10126304670BD70B5BC
:1043400005462C463DB940F2AB62AFF23C61AFF29C
:10435000246002F029FE74B39548006884422AD094
:1043600001F081FA2046FFF7C4FF10B3201DFEF7CD
:1043700019FC94F82C10012088408B4909680843E7
:1043800089490860E16A01EB8101884A02EB8100FA
:10439000211DFEF7E1FB8649E06A0968C96A884287
:1043A00007D34FF080507D490860BFF34F8FBFF3B4
:1043B0006F8F01F07BFA70BD2DE9F04106460027B2
:1043C00034463EB940F2E262AFF2BC61AFF2A460A3
:1043D00002F0EAFD01F09AFA00BF5021EFF31180DC
:1043E00081F31188BFF34F8FBFF36F8F00BF054676
:1043F0002046FFF77EFF20B369480068E0B96C49AA
:10440000E06A0968C96A884200D30127201DFEF7C7
:10441000C9FB94F82C1001208840634909680843BF
:1044200061490860E16A01EB8101604A02EB8100A9
:10443000211DFEF791FB04E004F118016048FEF72E
:104440008BFB00BF85F3118800BF3846BDE8F081C3
:1044500070B523E0FFF72BFD5A48006808B901202A
:1044600000E000200546FFF777FCBDB901F0FBF93D
:104470005448C068C468201DFEF794FB4F4800688C
:10448000401E4E49086050480068401E4E49086072
:1044900001F00CFA2046FFF72EFB00BF4A480068E7
:1044A0000028D7D170BD00BFFFF7D2FF3F4800689A
:1044B0000128F9D94FF0805038490860BFF34F8F79
:1044C000BFF36F8FF0E71CB5404800210B468222F6
:1044D000CDE900103EA14048FFF7C8FA0446012C80
:1044E00002D100F0EDFF0446012C15D100BF502091
:1044F00080F31188BFF34F8FBFF36F8F00BF4FF072
:10450000FF303649086001202B49086000203449FB
:10451000086001F051F90DE0601C08B1012000E0D5
:10452000002038B940F28472AFF61C01AFF60400E7
:1045300002F03AFD1CBD10B500BF502080F3118879
:10454000BFF34F8FBFF36F8F00BF00201A49086081
:1045500001F078F910BD22490868704770B501F084
:10456000D5F900251E480468204670BD1348006830
:10457000704770B5044614B90D48006800E0204645
:1045800005463DB940F68C02AFF67C01AFF66400FB
:1045900002F00AFD05F1340070BD000004ED00E0FA
:1045A0009C080020880800207C080020F00D0020D6
:1045B00064080020C010002080080020740800203B
:1045C00098100020AC1000207008002098080020EF
:1045D00049444C4500000000A7440008940800200E
:1045E000780800200246002101E0521C491C107886
:1045F000A528FAD0890888B270472DE9F04107460E
:104600000C4690461E4617B9F748006800E0384649
:104610000546256005F134006060E86A2061286B7A
:10462000E061686CA060207B032807D1FFF73FFCA6
:10463000A86A08B102202073FFF78EFBE86C606166
:104640000020A061052E01D0267303E03846FFF755
:10465000B5FC2073B8F1000F04D0286BFFF7C2FF40
:10466000208401E000202084BDE8F0812DE9F0479E
:1046700007460C4690460026206848B3204641680D
:104680004968416000F1080142688A4202D14168EC
:10469000496841604168D1F80C9000BF20464168EC
:1046A0004968416000F1080142688A4202D14168CC
:1046B000496841604168CD6806EBC60007EB8001A0
:1046C000434601222846FFF798FF761C4D45E5D169
:1046D0003046BDE8F0872DE9F0410546884616468C
:1046E00000242027FFF7E3FBC0480068804539D34A
:1046F00000BF7F1E07EB8702BD4B03EB820104EB7B
:10470000C40205EB82000122FFF7B0FF0444002F32
:10471000EFD104EBC40105EB81000222B549096821
:10472000FFF7A4FF044404EBC40105EB810002225F
:10473000B1490968FFF79AFF044404EBC40105EB93
:1047400081000422AD49FFF791FF044404EBC4014A
:1047500005EB81000322AA49FFF788FF04440EB14C
:1047600000203060FFF7F8FA2046BDE8F08170B510
:1047700004460D463CB940F60632AFF66C21AFF662
:10478000542002F011FC9848016818312046FEF7C9
:10479000EFF901212846FFF74CFB70BD70B50446C8
:1047A0000D4616463CB940F61732AFF69C21AFF6DF
:1047B000842002F0F9FB9348006808B1012000E072
:1047C000002038B940F61B32AFF6BC21AFF6A4206A
:1047D00002F0EAFB45F0004083490968886182489D
:1047E000016818312046FEF7B7F901213046FFF77E
:1047F00020FB70BD70B505460E4614463DB940F627
:104800003132AFF6F421AFF6DC2002F0CDFB764872
:10481000016818312846FEF79FF90CB14FF0FF36BA
:1048200021463046FFF705FB70BD70B50646F068BF
:10483000C4683CB940F66132AFF62C31AFF61430A3
:1048400002F0B2FB04F11800FEF7ACF96D48006805
:10485000A8B9201DFEF7A6F994F82C100120884075
:1048600069490968084368490860E16A01EB810108
:104870005F4A02EB8100211DFEF76EF904E004F1AE
:1048800018016248FEF768F95749E06A0968C96A81
:10489000884204D9012501205D49086000E0002517
:1048A000284670BD2DE9F04105460F465548006881
:1048B00008B1012000E0002038B940F69932AFF687
:1048C000B031AFF6983002F06FFB47F0004028603F
:1048D000EC683CB940F6A132AFF6CC31AFF6B4305B
:1048E00002F062FB2846FEF75DF9201DFEF75AF93B
:1048F00094F82C1001208840434909680843424934
:104900000860E16A01EB8101394A02EB8100211D57
:10491000FEF722F93449E06A0968C96A884204D975
:10492000012601203A49086000E000263046BDE833
:10493000F08110B504463CB940F6C132AFF63041C3
:10494000AFF6184002F030FB324800682060324871
:104950000068606010BD2DE9F04104460D463CB989
:1049600040F6CB32AFF65841AFF6404002F01CFBA8
:104970003DB940F6CC32AFF66841AFF6504002F098
:1049800013FB00F070FF244807682868401C08B932
:10499000002619E01F4920680968884204D0606831
:1049A000B84201D801260FE06068381A29688842A9
:1049B00009D228686168791A401A28602046FFF7F2
:1049C000B8FF002600E0012600F070FF3046BDE889
:1049D000F08101200E4908607047014611B10A4676
:1049E000906C00E0002070476408002074080020EC
:1049F000F00D0020680800206C080020AC1000209A
:104A0000C01000209C0800207C0800209810002086
:104A1000880800208C0800207808002008B1024691
:104A200091647047FB4908687047FB49096809B9F8
:104A3000012005E0F949096809B9022000E00020D9
:104A4000704770B505462C46002D4BD0F149E06A01
:104A50000968C96A884245D2A06900F0004028B9B7
:104A6000EC480068C06AC0F12000A061E16A01EB77
:104A70008101EB4A02EB81016069884201D101208A
:104A800000E0002050B3201DFEF78CF878B9E06AF2
:104A900000EB8000E24951F8200040B994F82C1056
:104AA00001208840DF4909688143DE480160D94818
:104AB0000068C06AE06294F82C1001208840D9494F
:104AC00009680843D7490860E16A01EB8101D44ACB
:104AD00002EB8100211DFEF73FF803E0CD4800689E
:104AE000C06AE06270BD70B505462C460026002DF8
:104AF0004FD0C8480068844201D1012000E0002066
:104B000038B940F6C762AFF6F851AFF6E05002F0A0
:104B10004BFA206D38B940F6C962AFF60C61AFF6BA
:104B2000F45002F041FA206D401E2065E16CE06A0D
:104B300088422ED0206D60BB201DFEF733F878B977
:104B4000E06A00EB8000B64951F8200040B994F8C3
:104B50002C1001208840B34909688143B1480160A5
:104B6000E06CE062E06AC0F12000A06194F82C10D3
:104B700001208840AB4909680843AA490860E16AF6
:104B800001EB8101A64A02EB8100211DFDF7E4FF44
:104B90000126304670BD70B505460E4631462846A2
:104BA00001F0DBFD284601F0D1FD044602E02020A3
:104BB0002855641C0F2CFAD300202855281970BDE5
:104BC0007FB50546002028709748006803909649F5
:104BD000096801EBC101880000F055FF0446002C74
:104BE00053D0002220460399FFF775FD0390002063
:104BF000029043E0029800EBC00004EB8000007BD1
:104C0000012806D0022806D0032806D0042808D19F
:104C100005E0522607E0422605E0532603E044263D
:104C200001E0002600BF00BF029800EBC00004EBCB
:104C3000800041682846FFF7AEFF0546029800EB6A
:104C4000C00004EB80008068029901EBC10104EB15
:104C50008101098CCDE90010029800EBC00004EB43
:104C60008000324671A10369284602F0ADF928465A
:104C700001F06CFD05440298401C0290DDE9020140
:104C80008842B7D3204600F081FF7FBD61490968A3
:104C9000886960490968C96AC1F120015D4A1268E2
:104CA000916170475B48006830B15A49096801F169
:104CB0005000096D491C016056480068704770B586
:104CC00006460D4600F0CFFD52480068406D88B999
:104CD00001205049096881F858005DB1012128463A
:104CE000FFF7A7F84FF0805054490860BFF34F8F8B
:104CF000BFF36F8F00F0DAFD00F0B5FD45480068A6
:104D0000446D4CB126B1002042490968486503E072
:104D1000601E40490968486500203E49096881F8DD
:104D2000580000F0C3FD204670BD2DE9F041074654
:104D3000884614461D4600F096FD3648006890F8F7
:104D40005800022818D03349096801F15400496D10
:104D5000B943016001202F49096881F858005DB10D
:104D600001212846FFF765F84FF08050334908606D
:104D7000BFF34F8FBFF36F8F00F098FD00F073FD0E
:104D80001CB124480068406D20602248006890F8FB
:104D90005800012801D1002608E01E49096801F1E8
:104DA0005400496D21EA08010160012600201949DB
:104DB000096881F8580000F079FD3046BDE8F081BF
:104DC0002DE9F04706460D46174698464FF0010A72
:104DD00036B941F2FD021A4901F11C0002F0E4F873
:104DE000344600F040FDB8F1000F02D0606DC8F805
:104DF000000094F85890022084F85800052F30D213
:104E0000DFE807F02E0320242600606D284360654C
:104E100027E0000064080020800800209C08002093
:104E2000F00D00207C08002074080020092563098B
:104E300025750925750925750D0A000004ED00E0AA
:104E4000103D0008606D401C60650AE0656508E083
:104E5000B9F1020F01D0656501E04FF0000A00E0F2
:104E600000BF00BFB9F1010F2FD1201DFDF79AFE41
:104E700094F82C10012088409B49096808439A49FE
:104E80000860E16A01EB8101984A02EB8100211D73
:104E9000FDF762FEA06A08B9012000E0002030B9E9
:104EA00041F23512924901F11C0002F07DF891495E
:104EB000E06A0968C96A884207D94FF080508E4974
:104EC0000860BFF34F8FBFF36F8F00F0EFFC5046C9
:104ED000BDE8F0872DE9F84F07460E469046994603
:104EE000DDF828B00120009037B941F268128049FE
:104EF00001F11C0002F058F800F008FD3C4600BF2C
:104F00005021EFF3118081F31188BFF34F8FBFF36E
:104F10006F8F00BF0546B9F1000F02D0606DC9F870
:104F2000000094F858A0022084F85800B8F1050F4A
:104F300017D2DFE808F01503070B0D00606D304352
:104F400060650EE0606D401C60650AE0666508E023
:104F5000BAF1020F01D0666501E00020009000E088
:104F600000BF00BFBAF1010F3AD1A06A08B9012011
:104F700000E0002030B941F2AF125D4901F11C00A0
:104F800002F012F85D480068A8B9201DFDF70AFE7E
:104F900094F82C100120884053490968084352496D
:104FA0000860E16A01EB8101504A02EB8100211D9A
:104FB000FDF7D2FD04E004F118015148FDF7CCFDE6
:104FC0004C49E06A0968C96A884209D9BBF1000FF7
:104FD00003D00120CBF8000002E00120494908601D
:104FE00000BF85F3118800BF0098BDE8F88F2DE958
:104FF000F04105460F4635B941F2E3123C4901F153
:105000001C0001F0D1FF00F081FC2C4600BF5021B4
:10501000EFF3118081F31188BFF34F8FBFF36F8FD0
:1050200000BF064694F85880022084F85800606D4E
:10503000401C6065B8F1010F37D1A06A08B90120A2
:1050400000E0002030B941F20922294901F11C0099
:1050500001F0AAFF29480068A8B9201DFDF7A2FDAC
:1050600094F82C10012088401F49096808431E4904
:105070000860E16A01EB81011C4A02EB8100211DFD
:10508000FDF76AFD04E004F118011D48FDF764FD19
:105090001849E06A0968C96A884206D917B101202F
:1050A000386002E001201749086000BF86F31188CC
:1050B00000BFBDE8F08170B5054615B90D48006820
:1050C00000E02846064600F0CEFB96F8580002287D
:1050D00004D1002086F85800012400E0002400F0EC
:1050E000E5FB204670BD00007C080020F00D00208C
:1050F000103D00086408002004ED00E09C0800203A
:1051000098100020880800202DE9F04104460D4643
:1051100016461F464FF0000865602461B5420CD862
:10512000F01BA169884202D34FF0010811E0211D54
:10513000F7480068FDF71CFD0BE0BE4204D2BD42FB
:1051400002D34FF0010804E0211DF2480068FDF78A
:105150000FFD4046BDE8F0812DE9FF4704460D46AE
:1051600016461F46DDF830804FF000092CB94FF489
:10517000D372E9A1F0A001F017FFF348006810B363
:10518000009501960294062D15DAFFF74EFC0228D1
:1051900008D1002342466946EB480068FDF76CFEE3
:1051A000814610E000231A466946E7480068FDF78B
:1051B00063FE814607E000233A466946E2480068FC
:1051C000FEF7C8F88146484604B0BDE8F0872DE9EF
:1051D000F8432DE0CF480068C0680568CD480068F6
:1051E000C068C468201DFDF7DDFC2046616A884761
:1051F000E06901281CD1A0694619AE4207D9666052
:105200002461211DC3480068FDF7B2FC10E00020B6
:1052100003462A46014600902046FFF79DFF0746B9
:105220002FB940F29232BCA1C3A001F0BDFE00BF75
:10523000B8480068006808B9012000E00020002894
:10524000C8D0B448D0F80080B1480068B1490860BF
:10525000AF48C0F80080BDE8F88370B50446FFF79A
:105260007AF90546B9480068854204D2FFF7AFFFD6
:105270000120206001E000202060B448056028463D
:1052800070BDF0B587B070E0039800280CDA04AE6A
:105290002EB940F2E722A0A1A7A001F085FED6E931
:1052A0000020B168904700BF039800285DDB059C93
:1052B000606908B9012000E0002010B9201DFDF749
:1052C00071FC02A8FFF7C9FF054603980A284AD2D5
:1052D000DFE800F00905072C2E4506082D2F00BF3A
:1052E00000BF00BF00BF0498A269811803462A4688
:1052F0002046FFF709FFC0B12046616A8847E06990
:10530000012812D1002000900498A16942180023BE
:1053100019462046FFF720FF07462FB940F22132F9
:105320007DA185A001F040FE00BF1DE000BF1BE095
:1053300000BF0498A061A06908B1012000E000202E
:1053400028B94FF44E7274A17BA001F02DFEA06924
:1053500041192B462A462046FFF7D6FE04E0204698
:1053600000F014FC00E000BF00BF00231A4603A9B0
:1053700075480068FDF7CAFE002885D107B0F0BD6A
:10538000F8B505460F4663480068C068C468201D2C
:10539000FDF708FCE069012818D1A06941192B46E6
:1053A0003A462046FFF7B0FE80B1002003462A4669
:1053B000014600902046FFF7CFFE06462EB94FF477
:1053C000027255A15CA001F0EFFD00BF2046616AAA
:1053D0008847F8BDF8B505460C46FEF768FD6846F7
:1053E000FFF73BFF0646009820BB44B9B54206D8FC
:1053F000FEF7B2FC31462846FFF7C2FF1CE03CB185
:1054000043480068006808B9012000E00020044615
:10541000A91B22464C480068FEF7EDF9FEF79CFCFC
:1054200050B94FF080504A490860BFF34F8FBFF327
:105430006F8F01E0FEF790FCF8BD0146354A126817
:1054400012680AB9012200E000220A600A6822B943
:10545000304A1268D268106800E00020704708B532
:1054600000BF6846FFF7E9FF044620460099FFF7B2
:10547000B1FFFFF706FFF4E710B500F0F4F932488A
:105480000068D0B93348FDF757FB3348FDF754FBAC
:1054900030482049086030481D490860002210212A
:1054A0000520FDF7EEFB284908600846006820B19A
:1054B0002AA125480068FEF778F900F0F7F910BD39
:1054C0001CB50024FFF7D8FF1F48006858B12548D5
:1054D0001F2100234FF48272CDE9001022A124483D
:1054E000FEF7C4FA04462CB940F233120AA112A006
:1054F00001F05AFD20461CBD2DE9F04706460D4639
:1055000017469846DDE908940DB1012033E031E0FB
:10551000A4080020A00800202E2E5C2E2E5C5573BF
:1055200065725C4672656552544F535C74696D6573
:1055300072732E63000000004572726F723A257319
:105540002C25640D0A000000A8080020B0080020E7
:1055500004ED00E0D4100020E8100020546D7251DA
:1055600000000000AC080020546D722053766300E8
:105570005F540008002038B94FF4C672AFF26801DA
:10558000AFF24C0001F010FD5CB1FFF775FF266033
:10559000A561E761C4F82080C4F82490201DFDF7C0
:1055A000D8FABDE8F0872DE9FC4705460E461746B8
:1055B0009846DDF828902C2000F065FA04463CB1AE
:1055C00043463A4631462846CDE90094FFF794FF1A
:1055D0002046BDE8FC8710B55B48006808B1012093
:1055E00000E0002038B94FF4E872AFF2D401AFF216
:1055F000B80001F0D9FC5448006810BD70B50446ED
:1056000025463CB940F2D912AFF2F401AFF2D8000E
:1056100001F0CAFCA86970BD70B5044625463CB9C6
:1056200040F2E312AFF21011AFF2F40001F0BCFC53
:105630006E68304670BD70B5044625463CB940F2F0
:10564000ED12AFF22C11AFF2101001F0ADFC286892
:1056500070BD70B5044626463CB940F2DA32AFF26E
:105660004811AFF22C1001F09FFC00F0FCF87069BB
:1056700008B9012000E0002080F0010500F016F9D3
:10568000284670BD70B5044626463CB940F2EF325C
:10569000AFF27C11AFF2601001F086FC00F0E3F88D
:1056A000356A00F003F9284670BD70B504460D4612
:1056B00026463CB940F2FF32AFF2A411AFF2881097
:1056C00001F072FC00F0CFF8356200F0EFF870BD29
:1056D0002DE9FF4104460D4616461F466FF00100B6
:1056E000009001940295039600233A4669461748B4
:1056F0000068FDF72FFE8046404604B0BDE8F0810B
:105700002DE9FF4104460D4616461F460F48006826
:1057100038B940F22B42AFF20021AFF2E41001F0B1
:1057200043FC4FF0FF300090019402950396002354
:105730003A46694605480068FDF79EFB80464046AC
:1057400004B0BDE8F0810000AC080020A8080020EB
:1057500084480068401C08B9012000E0002020B9FE
:10576000F42281A18DA001F01FFC00BF502080F326
:105770001188BFF34F8FBFF36F8F00BF00BFFEE7ED
:10578000001F4FF080730360001F21F001030360CE
:10579000001F864B0360143802602038704784482D
:1057A00000684FF47A71B0FBF1F0401E4FF0E02139
:1057B00048610720086170471CB57E48014609789A
:1057C0000191FF21024611700146097800919DF870
:1057D000001001F05001784A11700721774A1160DA
:1057E00009E076490968491E744A11609DF8001065
:1057F0004906090E00919DF8001001F080018029F2
:10580000EFD06E49096809026C4A11601146098897
:1058100001F4E0611160674A0199117068480068FD
:1058200040F47000664908600846006840F0704027
:105830000860FFF7B4FF00204A490860FAF772FCDD
:1058400000201CBD10B547480068B0F57A7F01D133
:10585000012000E0002028B94FF4B57242A14FA00A
:1058600001F0A2FB10BD10B500BF502080F31188DD
:10587000BFF34F8FBFF36F8F00BF3A480068401CE3
:10588000384908600846006801280ED14C481C3889
:105890000068C0B208B9012000E0002028B94FF428
:1058A000BD7231A13DA001F07FFB10BD10B52D48A8
:1058B000006828B940F281122BA138A001F074FBD6
:1058C00028480068401E274908600846006820B93B
:1058D000002080F3118800BF00BF10BD10B500BFCD
:1058E000502080F31188BFF34F8FBFF36F8F00BF3D
:1058F000FEF76AF920B14FF0805031491C39086039
:1059000000BF002080F3118800BF10BD70B5FAF70A
:105910003FFC0546102D11D305F1E02090F8F0432F
:1059200025480078844201DB012000E0002028B9EE
:105930004FF42A720CA119A001F036FB204814384C
:10594000006800F4E0601D490968884201D8012020
:1059500000E0002028B94FF42E7203A10FA001F03F
:1059600023FB70BDB40800202E2E5C2E2E5C5573D8
:1059700065725C4672656552544F535C706F727409
:1059800061626C655C525644535C41524D5F434DBD
:10599000335C706F72742E63000000004572726F8A
:1059A000723A25732C25640D0A0000005157000837
:1059B0000000002000E400E0B8080020BC0800203F
:1059C00020ED00E010B50146924800E00068036851
:1059D0008B42FBD30246436813448B4204D1436895
:1059E0004C682344436001460A464B6813440468EC
:1059F000A34211D1884C03682468A34208D04B68A5
:105A00000468646823444B6003681B680B6005E00E
:105A1000814B1B680B6001E003680B60884200D07B
:105A2000016010BD30B54FF420537C4800F00704EE
:105A30002CB1C01D20F00700784C041B1B1B024634
:105A4000744C22600024734D6C60D018083820F02C
:105A50000700714C206000246F4D2D686C606E4D06
:105A60002D682C601146441A4C606B4C24680C6005
:105A70006B4D4C682C606B4D4C682C604FF00044B3
:105A8000694D2C6030BD2DE9F04104464FF000080F
:105A9000FEF70DFA6048006808B9FFF7C3FF6248D7
:105AA0000068204000285FD1A4B1083404F007004A
:105AB00080B104F00700C0F10800044404F00700BE
:105AC00008B9012000E0002020B9BF2257A163A03F
:105AD00001F06AFA002C47D052480068844243D84B
